{"abi":[{"type":"constructor","inputs":[{"name":"_b","type":"address","internalType":"address"}],"stateMutability":"payable"},{"type":"function","name":"payHalf","inputs":[],"outputs":[],"stateMutability":"nonpayable"}],"bytecode":{"object":"0x60806040526040516101e93803806101e983398101604081905260209160b8565b600080546001600160a01b0319166001600160a01b038316179055604234604e565b604947604e565b5060e6565b609481604051602401606291815260200190565b60408051601f198184030181529190526020810180516001600160e01b0390811663f5b1bba960e01b17909152609716565b50565b80516a636f6e736f6c652e6c6f67602083016000808483855afa5050505050565b60006020828403121560c957600080fd5b81516001600160a01b038116811460df57600080fd5b9392505050565b60f5806100f46000396000f3fe6080604052348015600f57600080fd5b506004361060285760003560e01c80631d9ab27014602d575b600080fd5b60336035565b005b600080544791906001600160a01b0316604e600284609e565b604051600081818185875af1925050503d80600081146088576040519150601f19603f3d011682016040523d82523d6000602084013e608d565b606091505b5050905080609a57600080fd5b5050565b60008260ba57634e487b7160e01b600052601260045260246000fd5b50049056fea2646970667358221220ea7e2a8a108b6e1b0f0e104d719028dae025c3f7b0c5c94d333389bde2db1b6564736f6c634300081c0033","linkReferences":{}},"methodIdentifiers":{"payHalf()":"1d9ab270"},"id":18}