{"abi":[{"type":"function","name":"sendAlert","inputs":[{"name":"hero","type":"address","internalType":"address"}],"outputs":[],"stateMutability":"nonpayable"}],"bytecode":{"object":"0x6080604052348015600f57600080fd5b5061018c8061001f6000396000f3fe608060405234801561001057600080fd5b506004361061002b5760003560e01c8063c53a4fee14610030575b600080fd5b61004361003e3660046100f7565b610045565b005b6040516376d66fdb60e01b60208201527f76d66fdbed6b58222bf77507e2437e48afab36b3722f2af58539ebbc5ba68542906000906001600160a01b0384169060240160408051601f19818403018152908290526100a291610127565b6000604051808303816000865af19150503d80600081146100df576040519150601f19603f3d011682016040523d82523d6000602084013e6100e4565b606091505b50509050806100f257600080fd5b505050565b60006020828403121561010957600080fd5b81356001600160a01b038116811461012057600080fd5b9392505050565b6000825160005b81811015610148576020818601810151858301520161012e565b50600092019182525091905056fea26469706673582212201ba6468d121998c9248ac2d36562bb45fc5f88c51ed8c98f05a287756c63323164736f6c634300081c0033","linkReferences":{}},"methodIdentifiers":{"sendAlert(address)":"c53a4fee"},"id":20}