{"abi":[{"type":"constructor","inputs":[],"stateMutability":"nonpayable"},{"type":"function","name":"setA","inputs":[{"name":"_configA","type":"uint256","internalType":"uint256"}],"outputs":[],"stateMutability":"nonpayable"},{"type":"function","name":"setB","inputs":[{"name":"_configB","type":"uint256","internalType":"uint256"}],"outputs":[],"stateMutability":"nonpayable"},{"type":"function","name":"setC","inputs":[{"name":"_configC","type":"uint256","internalType":"uint256"}],"outputs":[],"stateMutability":"nonpayable"}],"bytecode":{"object":"0x6080604052348015600f57600080fd5b50600380546001600160a01b0319163317905561019d806100316000396000f3fe608060405234801561001057600080fd5b50600436106100415760003560e01c806309cdcf9b14610046578063ee919d501461005b578063eeb4914e1461006e575b600080fd5b610059610054366004610117565b610081565b005b610059610069366004610117565b6100b9565b61005961007c366004610117565b6100e8565b6003546001600160a01b031633146100b45760405162461bcd60e51b81526004016100ab90610130565b60405180910390fd5b600155565b6003546001600160a01b031633146100e35760405162461bcd60e51b81526004016100ab90610130565b600055565b6003546001600160a01b031633146101125760405162461bcd60e51b81526004016100ab90610130565b600255565b60006020828403121561012957600080fd5b5035919050565b60208082526017908201527f43616c6c6572206973206e6f7420746865206f776e657200000000000000000060408201526060019056fea2646970667358221220d805776d3b4f4cb9e8c34109480291154c6c1804475417686827c36fc98a046a64736f6c634300081c0033","linkReferences":{}},"methodIdentifiers":{"setA(uint256)":"ee919d50","setB(uint256)":"09cdcf9b","setC(uint256)":"eeb4914e"},"id":18}