{"abi":[{"type":"constructor","inputs":[{"name":"_b","type":"address","internalType":"address"}],"stateMutability":"nonpayable"},{"type":"function","name":"sum","inputs":[],"outputs":[{"name":"","type":"uint256","internalType":"uint256"}],"stateMutability":"view"}],"bytecode":{"object":"0x608060405234801561001057600080fd5b5060405161018f38038061018f83398101604081905261002f916100bb565b600180546001600160a01b0319166001600160a01b03831690811790915560405163771602f760e01b8152600f6004820152600a602482015263771602f790604401602060405180830381865afa15801561008e573d6000803e3d6000fd5b505050506040513d601f19601f820116820180604052508101906100b291906100eb565b60005550610104565b6000602082840312156100cd57600080fd5b81516001600160a01b03811681146100e457600080fd5b9392505050565b6000602082840312156100fd57600080fd5b5051919050565b607d806101126000396000f3fe6080604052348015600f57600080fd5b506004361060285760003560e01c8063853255cc14602d575b600080fd5b603560005481565b60405190815260200160405180910390f3fea2646970667358221220c60c75d4adec953568b0a001aeaebab3e6c6f200d7a452a517e17847d494a92364736f6c634300081c0033","linkReferences":{}},"methodIdentifiers":{"sum()":"853255cc"},"id":18}