{"abi":[{"type":"function","name":"alert","inputs":[{"name":"enemies","type":"uint256","internalType":"uint256"},{"name":"armed","type":"bool","internalType":"bool"}],"outputs":[],"stateMutability":"nonpayable"},{"type":"function","name":"ambush","inputs":[],"outputs":[{"name":"alerted","type":"bool","internalType":"bool"},{"name":"enemies","type":"uint256","internalType":"uint256"},{"name":"armed","type":"bool","internalType":"bool"}],"stateMutability":"view"}],"bytecode":{"object":"0x6080604052348015600f57600080fd5b506101248061001f6000396000f3fe6080604052348015600f57600080fd5b506004361060325760003560e01c806389434ea7146037578063f59763e6146081575b600080fd5b607f604236600460bb565b6040805160608101825260018082526020820185905292151591018190526000805460ff1990811684179091559290915560028054909216179055565b005b60005460015460025460989260ff90811692911683565b604080519315158452602084019290925215159082015260600160405180910390f35b6000806040838503121560cd57600080fd5b823591506020830135801515811460e357600080fd5b80915050925092905056fea26469706673582212205a125df1600457370c175c3cf4221a0834363b0c6d75489b0958d3cab1d5438664736f6c634300081c0033","linkReferences":{}},"methodIdentifiers":{"alert(uint256,bool)":"89434ea7","ambush()":"f59763e6"},"id":19}