{"abi":[{"type":"function","name":"sendAlert","inputs":[{"name":"hero","type":"address","internalType":"address"}],"outputs":[],"stateMutability":"nonpayable"}],"bytecode":{"object":"0x6080604052348015600f57600080fd5b5060f68061001e6000396000f3fe6080604052348015600f57600080fd5b506004361060285760003560e01c8063c53a4fee14602d575b600080fd5b603c60383660046092565b603e565b005b806001600160a01b03166376d66fdb6040518163ffffffff1660e01b8152600401600060405180830381600087803b158015607857600080fd5b505af1158015608b573d6000803e3d6000fd5b5050505050565b60006020828403121560a357600080fd5b81356001600160a01b038116811460b957600080fd5b939250505056fea2646970667358221220519737320b3bc7c99ef2f2719c7c3e7ab8be2a79d9ceb3bad1a2f23c63bdb6fc64736f6c634300081c0033","linkReferences":{}},"methodIdentifiers":{"sendAlert(address)":"c53a4fee"},"id":19}