{"abi":[{"type":"function","name":"sendAlert","inputs":[{"name":"hero","type":"address","internalType":"address"},{"name":"enemies","type":"uint256","internalType":"uint256"},{"name":"armed","type":"bool","internalType":"bool"}],"outputs":[],"stateMutability":"nonpayable"}],"bytecode":{"object":"0x6080604052348015600f57600080fd5b506101ab8061001f6000396000f3fe608060405234801561001057600080fd5b506004361061002b5760003560e01c80634abe264a14610030575b600080fd5b61004361003e3660046100f3565b610045565b005b6040516024810183905281151560448201526000906001600160a01b0385169060640160408051601f198184030181529181526020820180516001600160e01b03166389434ea760e01b1790525161009d9190610146565b6000604051808303816000865af19150503d80600081146100da576040519150601f19603f3d011682016040523d82523d6000602084013e6100df565b606091505b50509050806100ed57600080fd5b50505050565b60008060006060848603121561010857600080fd5b83356001600160a01b038116811461011f57600080fd5b9250602084013591506040840135801515811461013b57600080fd5b809150509250925092565b6000825160005b81811015610167576020818601810151858301520161014d565b50600092019182525091905056fea2646970667358221220c80c986323005a06e8375cf42d253edebbf9eb817ca3bfba6d2579250e9bf83d64736f6c634300081c0033","linkReferences":{}},"methodIdentifiers":{"sendAlert(address,uint256,bool)":"4abe264a"},"id":21}