{"abi":[{"type":"receive","stateMutability":"payable"},{"type":"function","name":"x","inputs":[],"outputs":[{"name":"","type":"uint256","internalType":"uint256"}],"stateMutability":"view"},{"type":"error","name":"DoNotPayMe","inputs":[{"name":"","type":"uint256","internalType":"uint256"}]}],"bytecode":{"object":"0x608060405260008055348015601357600080fd5b5060a98060216000396000f3fe60806040526004361060205760003560e01c80630c55699c14604d57600080fd5b36604857600f600055604051635688046360e01b815234600482015260240160405180910390fd5b600080fd5b348015605857600080fd5b50606160005481565b60405190815260200160405180910390f3fea264697066735822122075c0646b1dc15982ca20508437cba0500980f274ac7eac8a2e57bdc408d3e62764736f6c634300081c0033","linkReferences":{}},"methodIdentifiers":{"x()":"0c55699c"},"id":18}