{"abi":[{"type":"function","name":"alert","inputs":[],"outputs":[],"stateMutability":"nonpayable"},{"type":"function","name":"alerted","inputs":[],"outputs":[{"name":"","type":"bool","internalType":"bool"}],"stateMutability":"view"}],"bytecode":{"object":"0x6080604052348015600f57600080fd5b5060a080601d6000396000f3fe6080604052348015600f57600080fd5b506004361060325760003560e01c8063410b45a514603757806376d66fdb146057575b600080fd5b60005460439060ff1681565b604051901515815260200160405180910390f35b60686000805460ff19166001179055565b00fea26469706673582212202386e4d7f968fd1271ed1f131ad42c4c024524287340ea3a4be69eac0f9a29f064736f6c634300081c0033","linkReferences":{}},"methodIdentifiers":{"alert()":"76d66fdb","alerted()":"410b45a5"},"id":18}